:1000000082EF0CF0FFFF30FF00C01EF001C01DF0BA
:1000100002C01CF003C01BF004C01AF005C019F0A8
:1000200008C018F009C017F00AC016F00BC015F090
:10003000E1CF23F0E2CF24F0E9CF21F0EACF22F0A4
:10004000F3CF1FF0F4CF20F0F2A405D0F2946A0EA3
:10005000D66E44EC0BF01FC0F3FF20C0F4FF1EC0AF
:1000600000F01DC001F01CC002F01BC003F01AC05C
:1000700004F019C005F018C008F017C009F016C048
:100080000AF015C00BF021C0E9FF22C0EAFF23C02F
:10009000E1FF24C0E2FF11001E0E716E100E000180
:1000A0008B6F040E8C6F8BC0E1FF8CC0E2FFE69E6D
:1000B0008BC0E1FF8CC0E2FFE69C040E8B25E16E55
:1000C000000E8C21E26EE68C180E396E040E3A6E2C
:1000D00039C0E1FF3AC0E2FFE69E39C0E1FF3AC015
:1000E000E2FFE69C040E3924E16E000E3A20E26E37
:1000F000E68C020E8B25E16E000E8C21E26E90C024
:10010000E6FF91C0E6FF010E8B25E16E000E8C210B
:10011000E26E400EE66E8BC0E9FF8CC0EAFFEECFC8
:1001200000F08BC0E1FF8CC0E2FF400E0014E66ED1
:100130008BC0E9FF8CC0EAFFEECF00F0880E001202
:100140008BC0E1FF8CC0E2FF00C0E6FF8BC092F0E5
:100150008CC093F0040E8B19006E00C08BF012005F
:100160000B6A0A6A096A00500402F4CF09F0F3CF5F
:1001700008F001500502F4CF0BF0F3CF0AF0005065
:100180000502F3500926F4500A22E86A0B220150B6
:100190000402F3500926F4500A22E86A0B2208C030
:1001A00000F009C001F00AC002F00BC003F0120019
:1001B00004012251010A11E120C401F01F0E0116B1
:1001C0000150000A0AE1478E2151030A04E1010EA1
:1001D00000018D6F02D000018D6B04012251000AD5
:1001E000D8A48BD020C401F01F0E01160150020AC2
:1001F000D8A483D024C401F00F0E01160150000AC8
:10020000D8B47BD0478E24BF16D024C403F00F0E81
:10021000031603C000F0000E016E00360090013698
:10022000890E0024E96E000E0120EA6EEECF04F084
:10023000EECF05F015D024C403F00F0E031603C053
:1002400000F0000E016E003600900136370E0024DB
:10025000E96E000E0120EA6EEECF04F0EECF05F05D
:100260002151030A07E104C0E1FF05C0E2FF840E4B
:10027000E66E43D024C400F00F0E0016700E026E1E
:100280000F0E036E00500226D8B0032A02C0E9FF09
:1002900003C0EAFFFE0EEE14006EEECF01F0FF0E7B
:1002A000011602C0E1FF03C0E2FF00C0E6FF01C08B
:1002B000E6FF24AF11D004C0E1FF05C0E2FFE66A0B
:1002C000040E0418006E00C004F004C0E1FF05C075
:1002D000E2FF400EE66E11D004C0E1FF05C0E2FF70
:1002E000880EE66E040E0418006E00C004F004C010
:1002F000E1FF05C0E2FFC80EE66E120020C401F067
:100300001F0E01160150010A01E08FD00401245193
:10031000000A01E08AD02151060A41E136D00001ED
:100320007C51010A17E1640E006E1B0E016E000E77
:10033000026E120E0026000E0122022200C044F0BE
:1003400001C045F002C046F0090E486E000E496E2D
:10035000C00E476E24D000017C51010A12E18D0EBF
:10036000006E1B0E016E000E026E00C044F001C054
:1003700045F002C046F0210E486E000E496EC00ED8
:10038000476E0DD0800E476E0AD004012351210A1A
:10039000C6E02351220ADFE02351230AF3E020C400
:1003A00001F0600E0116050E006E005004E00132EF
:1003B000019EFF0FFBD70150010A01E036D022D089
:1003C00034D033D0850E446E000E456E010E486E5B
:1003D000000E496EC10E476E28D0800E476E23C4B2
:1003E00085F023D0860E446E000E456E010E486ED9
:1003F000000E496E810E476E18D0800E476E22C4E3
:1004000086F013D004012151010ADAE02151090AD2
:10041000D8E02151020AD6E021510A0ADEE021513A
:10042000030AE0E021510B0AE8E01200000E495CEB
:1004300002E1080E485C10E248C003F049C004F035
:100440004A50000A03E1010E4A6E05D04A50010AE3
:1004500002E1020E4A6E04D0080E036E000E046E16
:1004600037C0E1FF38C0E2FFE69237C0E1FF38C095
:10047000E2FFE69037C0E9FF38C0EAFFEECF00F0B8
:1004800037C0E1FF38C0E2FF04500010E66E010EF5
:100490003724E16E000E3820E26E03C0E6FF035001
:1004A000485C006E04504958016E00C048F001C01D
:1004B00049F0280E0001946F040E956F47B02FD0BD
:1004C000035004102BE044C0F6FF45C0F7FF46C0C0
:1004D000F8FF0900F5CF00F094C0E1FF95C0E2FFFE
:1004E00000C0E6FF944B952B010E4424006E000ED5
:1004F0004520016E000E4620026E00C044F001C08F
:1005000045F002C046F0010E035C006E000E045878
:10051000016E00C003F001C004F0D2D724D0035014
:10052000041021E044C0E9FF45C0EAFF94C0E1FFA8
:1005300095C0E2FFEECFE6FF944B952B010E4424CD
:10054000006E000E4520016E00C044F001C045F071
:10055000010E035C006E000E0458016E00C003F033
:1005600001C004F0DCD71200478E716A0001876B6E
:1005700022C47CF07C51000A03E1100E4B6E03D0C4
:10058000200E4B6E89DD12000401286B296B47D0C9
:100590000401478E288100018D51010A02E1040106
:1005A000288352D0478E50D00401478E24BF16D0E6
:1005B00024C403F00F0E031603C000F0000E016EFA
:1005C000003600900136890E0024E96E000E0120ED
:1005D000EA6EEECF04F0EECF05F015D024C403F0A0
:1005E0000F0E031603C000F0000E016E00360090DF
:1005F0000136370E0024E96E000E0120EA6EEECFC0
:1006000004F0EECF05F004C0E9FF05C0EAFFEECF2D
:1006100001F001A403D00401010E286F15D020C4FD
:1006200001F01F0E01160150000AB2E020C401F0D3
:100630001F0E01160150010AB5E020C401F01F0E83
:1006400001160150020AB0E047AE07D0280E446EF2
:10065000040E456E4780020E486E120004012051C0
:10066000800AD8A473D0C00E476E65D0C20E006E4B
:100670001B0E016E000E026E00C044F001C045F07A
:1006800002C046F0120E486E000E496E5FD0030E97
:10069000006E000E016E22C404F0000E056E60DDD7
:1006A000340E0024E96E000E0120EA6EEECF44F015
:1006B000EECF45F0EECF46F0020E4424F66E000E6B
:1006C0004520F76E000E4620F86E0900F5CF00F0C9
:1006D0000900F5CF01F000C048F001C049F036D064
:1006E000225100017D5D23E3030E006E000E016EBA
:1006F00022C404F0000E056E33DD2A0E0024E96EDC
:10070000000E0120EA6EEECF44F0EECF45F0EECFC2
:1007100046F044C0F6FF45C0F7FF46C0F8FF0900A9
:10072000F5CF00F000C048F0000E496E01D0476AD6
:100730000DD0476A0BD004012351010A97E02351E1
:10074000020AA5E02351030ACBE0F3D712006D980B
:1007500047BE4BD03DAE29D0020E4C6E010E372461
:10076000E16E000E3820E26EE66A37C0E1FF38C065
:10077000E2FFC80EE66E010E00019725E16E000E45
:100780009821E26E080EE66E020E9725E16E000ECD
:100790009821E26E280EE66E040EE66E97C0E1FF29
:1007A00098C0E2FFC80EE66E1FD00001010E97252B
:1007B000E16E000E9821E26E080EE66E020E97259D
:1007C000E16E000E9821E26E200EE66E040EE66EDB
:1007D00097C0E1FF98C0E2FF8C0EE66E37C0E1FFE4
:1007E00038C0E2FF840EE66E7FD03DBE7DD00401AE
:1007F00020AF52D04950275D02E14850265D04E207
:1008000026C448F027C449F011DE010E4C6E010EDB
:1008100000019725E16E000E9821E26E080EE66E4B
:10082000020E9725E16E000E9821E26E200EE66E14
:10083000040EE66E97C0E1FF98C0E2FF800EE66E00
:10084000966B010E8E25E16E000E8F21E26E080E72
:10085000E66E020E8E25E16E000E8F21E26E200EF6
:10086000E66E040EE66E8EC0E1FF8FC0E2FF840EDE
:10087000E66E010E966F020E3724E16E000E3820F0
:10088000E26E280EE66E040EE66E37C0E1FF38C059
:10089000E2FFC80EE66E28D00001020E4C6E010E7B
:1008A0003724E16E000E3820E26EE66A37C0E1FFC1
:1008B00038C0E2FFC80EE66E010E9725E16E000E0D
:1008C0009821E26E080EE66E020E9725E16E000E8C
:1008D0009821E26E280EE66E040EE66E97C0E1FFE8
:1008E00098C0E2FFC80EE66E120000017E5301E0E0
:1008F00005DD12004C6A37C0E1FF38C0E2FFE66A4E
:10090000040E3718E16E38C0E2FF000EE21AE66A04
:100910003DBE3D9E1200010E00018E25E96E000EC7
:100920008F21EA6EEECF00F000C002F0000E3F5CB7
:1009300002E102503E5C03E23EC002F00AD00250E7
:100940003E5C006E000E3F58016E00C03EF001C0DC
:100950003FF0036A0250035C1CE2280EE96E040EAD
:10096000EA6E0350E926D8B0EA2AEECF00F03BC089
:10097000E1FF3CC0E2FF00C0E6FF010E3B24006E39
:10098000000E3C20016E00C03BF001C03CF0032A89
:10099000E1D7000E006E3F50005C02E13E500008BF
:1009A00028E2010E9725E16E000E9821E26E080EF6
:1009B000E66E020E9725E16E000E9821E26E280E7B
:1009C000E66E040EE66E8EC0E9FF8FC0EAFFEECF42
:1009D00000F000BC07D097C0E1FF98C0E2FFC80E4E
:1009E000E66E06D097C0E1FF98C0E2FF880EE66E83
:1009F00019D0010E9725E16E000E9821E26E080EC7
:100A0000E66E020E9725E16E000E9821E26E200E32
:100A1000E66E040EE66E97C0E1FF98C0E2FF840E1A
:100A2000E66E3D9E1200640E346E1B0E356E000E97
:100A3000366EDC0E2A6E1B0E2B6E000E2C6EAE0E6A
:100A40002D6E1B0E2E6E000E2F6ED40E306E1B0EF2
:100A5000316E000E326E1200160E6F6E9F0E6B6EB0
:100A60003B0E696E120020C401F0600E0116050EE7
:100A7000006E005004E00132019EFF0FFBD70150D1
:100A8000000A01E05AD036D0478E080E4B6E55D082
:100A9000E5DD53D069DD51D07C0E446E000E456E0D
:100AA0004780010E486E478E48D06EDD46D0D8ECA8
:100AB00000F043D0870E006E000E016E0401245139
:100AC0000026D8B0012A00C044F001C045F047809C
:100AD000010E486E478E31D0478E870EE16E000EB4
:100AE000E26E2451E126D8B0E22A22C4E6FF25D0E6
:100AF00024D023D004012151050AC6E02151060A61
:100B0000C7E02151090AC6E02151080AC5E0215178
:100B1000000ACBE02151010ACAE02151030AC7E0D3
:100B200021510A0AC7E021510B0AD6E02151070AD8
:100B3000DFE021510C0ADDE0DCD712006984EF0E02
:100B400068166D82120070A01CD08EC0E9FF8FC0A5
:100B5000EAFFEECF01F00150800A12E137C0E9FF51
:100B600038C0EAFFEECF01F0000E000A02E1840E69
:100B7000011806E18EC0E1FF8FC0E2FF8C0EE66E29
:100B80007090DF0E6816120037C0E9FF38C0EAFF28
:100B9000EECF00F000AE05D037C0E1FF38C0E2FF75
:100BA000E66A4A6A4C6A486A496A476A5CDF9DDEBF
:100BB000CEDD12006D92699468A403D0FB0E681616
:100BC000FBD712004C50020A02E1A5DE1FD092DED4
:100BD00000019651000A19E1010E9725E16E000E01
:100BE0009821E26E080EE66E020E9725E16E000E69
:100BF0009821E26E200EE66E040EE66E97C0E1FFCD
:100C000098C0E2FF8C0EE66E01D0966B12000BDFEF
:100C10000001926B936B786B796B6A6A686A1CDF70
:100C20006D8C6E6A716A6D9C7A6B7B6B000E7B5D5E
:100C300002E1080E7A5D17E27AC000F07BC001F095
:100C4000003600900136003600900136000E002478
:100C5000E16E040E0120E26EE66AE66AE66AE66A82
:100C60007A4B7B2BE3D7160E706E68A603D0F70E77
:100C70006816FBD7476A3D6A3E6A3F6A6D98080E60
:100C8000376E040E386E7C6B4B6A1200A19A12000C
:100C9000040E3718006E00C037F04B50080A0AE106
:100CA00022C46EFF6E50000803E2100E4B6E02D09D
:100CB000040E4B6E4C50010A3BE1020E3724E16EEC
:100CC000000E3820E26E280EE66E040EE66E16EC7C
:100CD00002F04A50020A07E137C0E1FF38C0E2FFE4
:100CE000840EE66E24D0040E3718006E00C037F074
:100CF00037C0E9FF38C0EAFFEECF00F000BC0CD0EF
:100D0000040E3718006E00C037F037C0E1FF38C05E
:100D1000E2FFC80EE66E0BD0040E3718006E00C05E
:100D200037F037C0E1FF38C0E2FF880EE66E01D031
:100D3000E1DD1200000E0001AA1902E1000EA9195E
:100D400002E1016A0AD0A9C0E9FFAAC0EAFFEECF1A
:100D500000F0000E00BE010E016E01C000F0120096
:100D60004B50000A09E16D6A696A76DE6DB602D001
:100D70006D86FCD7010E4B6E4B50010A08E16DBA2F
:100D800006D0686A696A69806988020E4B6E68A439
:100D900005D069A403D0FB0E68160CDF6DA202D04B
:100DA00075DFD6D068A018D069A016D030DF040E49
:100DB0004B6E200E0401026F040E036F080E016FCC
:100DC000000E0015006E00C000F48C0E0011006EC5
:100DD00000C000F4FE0E681668A805D069A803D00C
:100DE000ADDEEF0E681668AC04D069AC02D0BF0E61
:100DF000681668AA03D069AA01D0A5DE68A202D04D
:100E000069B26A6A040E4B5C02E240DFA1D069A6B7
:100E10009ED00001AA6B040EAA5DD8B098D068A637
:100E200092D06CCF88F0F70E6816780E8815016E98
:100E30000150000AD8A486D0FD0E8815016E026A02
:100E4000FF0E0216000E021802E1000E01186BE1FF
:100E50007E0E8815016E01C003F00332039E03C0AD
:100E600000F0000E016E0036009001360036009052
:100E70000136000E0024026E040E0120036E02C033
:100E80008EF003C08FF002C097F003C098F0040EFC
:100E90009719006E00C097F002C0E9FF03C0EAFF97
:100EA000EECF00F000C001F03C0E01160132019EB1
:100EB0000132019E01500D0A34E1020E8E25E96EC9
:100EC000000E8F21EA6EEECF01F0EECF02F002505D
:100ED000040A02E1280E011822E1020E8E25E16EBD
:100EE000000E8F21E26E200EE66E040EE66EA96BF8
:100EF000080EA95D14E2200EE16E040EE26EA95107
:100F0000E126D8B0E22A280EE96E040EEA6EA95155
:100F1000E926D8B0EA2AEECFE6FFA92BE9D734DEDE
:100F200001D050DE0ED00001FD0E8815016E026A60
:100F3000FF0E0216000E021802E1040E011801E174
:100F4000A7DE00D001D003D00001AA2B64D79EDE1B
:100F500012000001AA51000A12E0A9C000F0000E20
:100F6000016E003600900136370E0024E96E000E47
:100F70000120EA6EEECF04F0EECF05F011D0A9C04B
:100F800000F0000E016E003600900136890E00243C
:100F9000E96E000E0120EA6EEECF04F0EECF05F010
:100FA000020E0424E16E000E0520E26EABC0E6FFE7
:100FB000ACC0E6FF010E0424E16E000E0520E26ED7
:100FC000ADC0E6FF04C0E9FF05C0EAFFEECF00F0C8
:100FD00004C0E1FF05C0E2FF400E0014E66E04C04D
:100FE000E9FF05C0EAFFEECF00F0880E001204C052
:100FF000E1FF05C0E2FF00C0E6FFAA51000A1BE0C6
:10100000A9C000F0000E016E003600900136370EC8
:101010000024026E000E0120036E02C0E9FF03C02F
:10102000EAFF040EEE18006E02C0E1FF03C0E2FF0B
:1010300000C0E6FF1AD0A9C000F0000E016E003615
:1010400000900136890E0024026E000E0120036E0E
:1010500002C0E9FF03C0EAFF040EEE18006E02C0F2
:10106000E1FF03C0E2FF00C0E6FF04C000F005C0DE
:1010700001F0120068C0E9FF69C0EAFF1200000138
:10108000A86B200E4B5C03E36DB201D002D0006A66
:101090002DD092C0A9F093C0AAF04CDE005225E1F9
:1010A00092C0A6F093C0A7F0000E931902E1000EC3
:1010B00092190AE0010EA625E96E000EA721EA6E3C
:1010C000EECF00F000C0A8F0A5C0A9F0AA6BA2C0A6
:1010D000ABF0A3C0ACF0A4C0ADF03BDF00C092F019
:1010E00001C093F0A8C000F001D0006A1200000116
:1010F000A56BA66BA76B020EA225F66E000EA321B0
:10110000F76E000EA421F86E0900F5CF05F0030E6E
:10111000A225F66E000EA321F76E000EA421F86E34
:101120000900F5CF00F000C003F0000E046E03C00C
:1011300001F0006A05500024066E000E0120076EC3
:10114000A2C008F0A3C009F0A4C00AF0010E082450
:10115000F66E000E0920F76E000E0A20F86E0900E8
:10116000F5CF01F00150020A1BE1060E0824F66ECD
:10117000000E0920F76E000E0A20F86E0900F5CF68
:1011800001F00150A55D0CE2060E0824F66E000E7B
:101190000920F76E000E0A20F86E0900F5CFA5F0C1
:1011A000010E0824F66E000E0920F76E000E0A20CC
:1011B000F86E0900F5CF01F00150040A1BE1080E9A
:1011C0000824F66E000E0920F76E000E0A20F86E55
:1011D0000900F5CF01F00150A55D0CE2080E0824CE
:1011E000F66E000E0920F76E000E0A20F86E090058
:1011F000F5CFA5F008C0F6FF09C0F7FF0AC0F8FF59
:101200000900F5CF00F00050A625016E000EA721C1
:10121000026E01C0A6F002C0A7F00750025C02E116
:101220000650015C01E30FD008C0F6FF09C0F7FFCC
:101230000AC0F8FF0900F5CF00F000500826000EA4
:1012400009220A2283D7A5C000F01200D08EA28AFC
:10125000A08AF28E1200C20E006E1B0E016E000EEE
:10126000026E0E0E0024F66E000E0120F76E000EC8
:101270000220F86E0900F5CF03F003C004F00F0E52
:101280000024F66E000E0120F76E000E0220F86EAC
:101290000900F5CF01F00150035C12E2C20E006EAE
:1012A0001B0E016E000E026E0F0E0024F66E000E75
:1012B0000120F76E000E0220F86E0900F5CF04F051
:1012C000C20E006E1B0E016E000E026E100E002488
:1012D000F66E000E0120F76E000E0220F86E090077
:1012E000F5CF01F00150045C12E2C20E006E1B0E3D
:1012F000016E000E026E100E0024F66E000E01202C
:10130000F76E000E0220F86E0900F5CF04F004C05D
:1013100000F01200200E4B5C03E36DB201D002D04E
:10132000006A4ED078C0A9F079C0AAF003DD00525F
:1013300046E1A5C0A9F0010EAA6FA2C0ABF0A3C000
:10134000ACF0A4C0ADF005DE00C078F001C079F0CB
:10135000816B826B836B846B78C0A9F079C0AAF033
:10136000E9DC005217E0200E4B5C03E36DB201D0C4
:1013700002D0006A25D0000E016E0150000A01E182
:10138000EFDC0001815182118311841102E0006AB7
:1013900017D0E2D778C0A6F079C0A7F0000E79196F
:1013A00002E1000E781909E0010EA625E96E000E93
:1013B000A721EA6EEECF00F003D0006A01D0006AE8
:1013C00012000E0E0D6E0D2EFED70000120052DE22
:1013D000FDCFECFFFECFECFFFFCFECFF00016A87F3
:1013E000060012009EC0A2F09FC0A3F0A0C0A4F00F
:1013F000010E0001A56F8EDF1200830EC2169EC083
:1014000000F000360090003600900050C212D9DF84
:10141000C282C2A201D0FDD7C4CF01F0006AC3507E
:101420000012000E0112120000016A9B68C0E1FF69
:1014300069C0E2FFE6989E519F11A011A11146E0FC
:10144000FF0E9E19006EFF0E9F19016EFF0EA01970
:10145000026EFF0EA119036E00C09EF001C09FF046
:1014600002C0A0F003C0A1F0010E0024046E000E23
:101470000120056E000E0220066E000E0320076E8E
:1014800004C09EF005C09FF006C0A0F007C0A1F008
:1014900068C000F069C001F0050E0024E16E000E86
:1014A0000120E26E04C0E6FF05C0E6FF06C0E6FFCD
:1014B00007C0E6FF68C0E1FF69C0E2FFE68668C0DA
:1014C000E1FF69C0E2FFE6886A896A871200C3DE2D
:1014D00000C09EF0640E0001A26F1B0EA36F000EF1
:1014E000A46F05DE00C09FF09E51005C03E29EC029
:1014F00000F002D09FC000F0120090C0A2F091C096
:10150000A3F0400E0001A46F010EA56FB8DD12001C
:101510004B50000A0BE16D6A696A2CEC05F096DE0F
:101520006DB602D06D86FCD7010E4B6E1200CFDF78
:1015300000C07DF0010E7E6F99C090F09AC091F0CE
:101540009BC07FF09CC080F007EC06F0000E016E9F
:101550000150010A01E1DCDF1200010E0501406FBC
:10156000050E00019E6F49DF00C002F001C003F0CC
:1015700003320232039E03320232039E02C041F55F
:10158000020E00019E6F39DF00C002F001C003F0BF
:1015900003320232039E03320232039E02C042F53E
:1015A000040E00019E6F29DF00C002F001C003F0AD
:1015B00003320232039E03320232039E02C043F51D
:1015C000070E00019E6F19DF00C002F001C003F09A
:1015D00003320232039E03320232039E02C044F5FC
:1015E000060E00019E6F09DF00C002F001C003F08B
:1015F00003320232039E03320232039E02C045F5DB
:1016000081CF46F5400E00019E6F050E9F6F400E84
:10161000A06FE8DE0050000A02E1829C01D0828CBB
:10162000010E00019E6F000E9F6FA06FA16FFCDE88
:10163000CEDE000092D712000001736B4D9C569CC9
:101640005F9C4D0E686F000E696F030E336E33049E
:10165000006E016A000E015A6F0E0024E16E000E4A
:101660000120E26E00C0E6FF3304006E016A000E46
:10167000015A6B0E0024E16E000E0120E26EE66A54
:1016800033063352E4E112000001AE6B030EAE5D8F
:1016900068E2090E006E000E016EAEC004F0000E8E
:1016A000056EB0EC00F04D0E0024E96E000E012036
:1016B000EA6EEECF00F000A852D0090E006E000EC8
:1016C000016EAEC004F0000E056EB0EC00F04D0EE1
:1016D0000026000E0122050E0024046E000E0120DB
:1016E000056E04C0E9FF05C0EAFF010EEE24006E9E
:1016F000000EEE20016E000EEE20026E000EEE20B7
:10170000036E04C0E1FF05C0E2FF00C0E6FF01C0B8
:10171000E6FF02C0E6FF03C0E6FF04C0E9FF05C024
:10172000EAFFEECF00F0EECF01F0EECF02F0EECF09
:1017300003F0005001100210031011E1090E006EB9
:10174000000E016EAEC004F0000E056EB0EC00F0AD
:101750004D0E0024E16E000E0120E26EE698AE2BE5
:1017600095D71200B0EC06F0010E00019E6F000E3E
:101770009F6FA06FA16F58DE2ADE0000F3D7120022
:10178000FA0E266E130E276E9E0E286E000E296E20
:10179000C26A251C006E0050C116070EC012C08E12
:1017A000C280120067DCEECF6AF00500EE50FD6EDD
:1017B000EE50FE6EEE50FF6E120012009EDE0050E4
:1017C000000A02E1828C01D0829C829082928294F3
:1017D00001C583FF010E9E6F000E9F6FA06FA16F6A
:1017E00023DEF5DD0000828482908282829402C52D
:1017F00083FF010E9E6F000E9F6FA06FA16F14DE1E
:10180000E6DD0000828482808292829403C583FF99
:10181000010E9E6F000E9F6FA06FA16F05DED7DDDA
:101820000000828482808282829404C583FF010E3C
:101830009E6F000E9F6FA06FA16FF6DDC8DD0000E8
:10184000828405C583FF828E010E9E6F000E9F6FFE
:10185000A06FA16FE9DDBBDD0000829EAFD7120053
:10186000C20ED56E6A0ED66EF28EF28A120000019A
:1018700073934D0E016E000E026E336A01C0E9FFD4
:1018800002C0EAFFEECF00F000BC2AD0998D998704
:10189000010E0124E16E000E0220E26E9AC0E6FF06
:1018A0009BC0E6FF9CC0E6FF9DC0E6FF050E01243D
:1018B000E16E000E0220E26EE66AE66AE66AE66A19
:1018C00001C0E1FF02C0E2FF99C0E6FF02506919C2
:1018D00002E16851011802E199C06AF0739309D0DE
:1018E000090E0126000E0222332A030E335CC6E3E2
:1018F000738312000900F5CFE6FF0006FBE1010645
:10190000F9E11200F0EC0DF0000E0001996F050EE8
:101910009A6F400E9B6F050E9C6F09DE070EC16E1D
:10192000C09EFF0E936E946AFF0E966EFF0E926E2F
:10193000956A836A25DF80DE996BBC0E9A6F170E5D
:101940009B6F000E9C6F000E9D6F91DF010E996FD3
:101950005A0E9A6F150E9B6F000E9C6F000E9D6FB6
:1019600086DF020E996F640E9A6F170E9B6F000E42
:101970009C6F000E9D6F7BDF73DF73997387726BB3
:10198000756B030E776F7705006E016A000E015AC2
:101990006F0E0024D96E000E0120DA6EDECF00F04B
:1019A00000C076F0000E016E090E046E000E056E8A
:1019B000B0EC00F04D0E0024686F000E0120696F3E
:1019C00068C0E9FF69C0EAFF010E006E6A0EE16EB1
:1019D000000EE26EEECFE6FF0006FCE16AAD03D03A
:1019E0006ABF01D001D087D06AB744D0DBDE3AECC1
:1019F00008F0D70EEF16280E6A15006E0050EF1291
:101A000073B738D06AB703D074B101D032D06B0E3F
:101A1000016E000E026E76510126D8B0022A01C076
:101A2000E9FF02C0EAFF7551EE5C006E01C0E1FF04
:101A300002C0E2FF00C0E6FF6EC077F0775317E008
:101A40006F0EE16E000EE26E7751E126D8B0E22A09
:101A50007705006E016A000E015A6F0E0024E96ED0
:101A6000000E0120EA6EEECFE6FF7707E7D776C0DB
:101A70006FF076D06AA903D06ABB01D03CD06AA7C8
:101A80003AD06B0EE96E000EEA6E7651E926D8B0B8
:101A9000EA2AEECF01F001C033F001BE1CD0080EDF
:101AA0003324016E01C033F068C0E9FF69C0EAFF6A
:101AB000EECF00F0070E00160050015C006E00C073
:101AC00033F06B0EE16E000EE26E7651E126D8B077
:101AD000E22A00C0E6FF3350725D08E272C075F082
:101AE00033C072F077056E6F738905D03350755D22
:101AF00002E233C075F07707775301E044D773A94A
:101B00002FD0739774916F0ED96E000EDA6E6E51EE
:101B1000D926D8B0DA2ADECF00F000C076F0000E69
:101B2000016E090E046E000E056EB0EC00F04D0E55
:101B30000024686F000E0120696F68C0E9FF69C06A
:101B4000EAFF010E006E6A0EE16E000EE26EEECF4D
:101B5000E6FF0006FCE16AAD03D06ABF01D046D7BC
:101B60000CD7FFD7090229000101008032090400C7
:101B700000020300000009210101000122210007E9
:101B8000058103400001070501034000010600FF35
:101B90000901A10119012940150026FF00750895CA
:101BA00040810219012940750895409102C0140333
:101BB0004C0069006D006F006E005400650063000A
:101BC0006800120100020000000834120100000148
:101BD000010200010803440041005100040309040C
:101BE00010EE25F0010E006E010E016E060EF66E6F
:101BF000000EF76E000EF86E7AEC0CF01200FFFF8C
:020000040030CA
:0E000000240E391EFF8380FF0FC00FE00F405B
:00000001FF
